:020000040800F2
:10000000082500209D010008A306000889030008B8
:10001000A106000887020008190F00080000000070
:10002000000000000000000000000000390A000885
:10003000ED0200080000000029070008E10A00089E
:10004000B7010008B7010008B7010008B7010008B0
:10005000B7010008B7010008B7010008B7010008A0
:10006000B7010008B7010008B7010008B701000890
:10007000B7010008B7010008B7010008B701000880
:10008000B7010008B7010008B7010008B701000870
:10009000B7010008B7010008B7010008B701000860
:1000A000B7010008B7010008B7010008B701000850
:1000B000B7010008B7010008B7010008B701000840
:1000C000B7010008B7010008B7010008B701000830
:1000D000B7010008A50B0008B10B0008BD0B000814
:1000E000B7010008B7010008B7010008B701000810
:1000F000B7010008B7010008B7010008B701000800
:10010000B7010008B7010008B7010008B7010008EF
:10011000B7010008B7010008B7010008B7010008DF
:10012000B7010008B7010008B7010008B7010008CF
:10013000B7010008B7010008B7010008B7010008BF
:10014000B7010008B7010008B7010008B7010008AF
:10015000B7010008B7010008B7010008E10B00086B
:10016000B7010008B7010008B7010008B70100088F
:10017000B7010008B7010008B7010008B70100087F
:10018000B7010008B7010008DFF80CD000F04AF80A
:1001900000480047591600080825002006488047F7
:1001A00006480047FEE7FEE7FEE7FEE7FEE7FEE75C
:1001B000FEE7FEE7FEE7FEE7490B000889010008BD
:1001C0002DE9F05F0546002092469B46884606468C
:1001D000814640241BE0284641464746224600F01F
:1001E00042F852465B46801A994110D31046194690
:1001F000224600F029F82D1A67EB01084F462246E7
:100200000120002100F020F817EB00094E41201ECC
:10021000A4F10104DFDC484631462A464346BDE8E6
:10022000F09F0000064C074D06E0E06840F0010337
:1002300094E8070098471034AC42F6D3FFF7A8FFC4
:10024000C4160008E4160008202A04DB203A00FA4D
:1002500002F1002070479140C2F1200320FA03F31D
:10026000194390407047202A04DB203A21FA02F01B
:100270000021704721FA02F3D040C2F120029140E0
:10028000084319467047FEE738B54FF4E06000F0C8
:1002900041FA25208DF8000000208DF8020001248D
:1002A0008DF80340684600F0FDF926208DF8000027
:1002B0008DF802408DF80340684600F0F3F92720DE
:1002C0008DF8000002208DF802008DF8034068468A
:1002D00000F0E8F947208DF8000005208DF80200B5
:1002E0008DF80340684600F0DDF938BD7047F0B581
:1002F000002201274FF0030C07FA02F40B68234099
:10030000A3422DD1046853000CFA03F5AC430460FA
:100310000C7906689C40344304600E79012E01D0AC
:10032000022E12D18468AC4384604C7985689C406D
:100330002C438460456807FA02F4A543456044688D
:100340008D799540ADB22C434460C56856000CFAD7
:1003500006F4A543C560CC799C40C3681C43C460C7
:10036000521C102AC8D3F0BD10B54B07DB0E9A40C3
:10037000C90800EB8100016A0F249C40A14301627F
:10038000016A1143016210BD06A3002010491A5CE6
:100390008A800A885206FCD5401CC0B22A28F6D3AF
:1003A000FEE700000D0A456E7465722048617264B4
:1003B0004661756C745F48616E646C65722C205385
:1003C000797374656D2048616C742E0D0A0000000D
:1003D000001001402DE9F04F87B00121084600F0E0
:1003E000B3FA0121102000F0C7FA07220921A4481E
:1003F000FFF7BAFF07220A21A148FFF7B5FF002443
:100400008DF81A4001268DF81B6002258DF81850D2
:10041000280205908DF8195005A99948FFF767FF44
:100420008DF818504FF48069CDF8149005A99448C0
:10043000FFF75DFF4FF4E13ACDF804A0ADF80840B6
:10044000ADF80A40ADF80C40ADF810400C27ADF8FF
:100450000E70DFF8308201A9404600F019FC01223D
:1004600040F22551404600F0F7FB0121404600F0E4
:10047000C1FB4021404600F0B9FB0121084600F0D5
:1004800063FA0121480400F06BFA072203217C483B
:10049000FFF76AFF8DF81A408DF81B608DF8185031
:1004A000082005908DF8195005A97548FFF71FFF22
:1004B0004FF4165BCDF804B0ADF80840ADF80A4033
:1004C000ADF80C40ADF810404FF00408ADF80E80C8
:1004D00001A96D4800F0DCFB012240F225516A4879
:1004E00000F0BAFB0121684800F084FB4021664817
:1004F00000F07CFB0121022000F026FA8DF8186044
:100500008DF81A408DF81B4003208DF81900CDF8A6
:100510001480DFF8788105A94046FFF7E8FE012145
:10052000022000F011FA0121880400F019FA0722D4
:100530000A214046FFF718FF07220B214046FFF72C
:1005400013FF8DF81A408DF81B608DF81850CDF808
:1005500014908DF8195005A94046FFF7C8FE8DF894
:100560001850A802059005A94046FFF7C0FECDF837
:1005700004B0ADF80840ADF80A40ADF80C40ADF855
:100580001040ADF80E70DFF8088101A9404600F078
:100590007FFB012240F22551404600F05DFB012126
:1005A000404600F027FB4021404600F01FFB0121A0
:1005B000442000F0C9F90121202000F0DDF9DFF826
:1005C000D48008220E214046FFF7CEFEDFF8C89007
:1005D000082207214846FFF7C7FE08221146404679
:1005E000FFF7C2FE08220F214046FFF7BDFE8DF83F
:1005F0001A408DF81B608DF81850680305908DF82F
:10060000195005A94046FFF772FE8DF8185080205A
:10061000059005A94846FFF76AFE8DF81850E801D5
:10062000059005A94046FFF762FE8DF81850A80313
:10063000059005A94046FFF75AFECDF804A0ADF895
:100640000840ADF80A40ADF80C40B801ADF8100014
:10065000ADF80E70114C01A9204600F019FB0122E3
:1006600040F22551204600F0F7FA0121204600F023
:10067000C1FA4021204600F0B9FA07B0BDE8F08F7A
:10068000000002400010014000440040000402400D
:1006900000480040001802400008024000140140D9
:1006A000FEE7704730B50F23C278017801244FF080
:1006B000E0250AB3154A126802F4E062C2F5E0626E
:1006C000C2F30722C2F1040CD340427802FA0CF2C2
:1006D00090F802C00CEA030C4CEA020C4FEA0C1230
:1006E0000B4BCA54007800F01F018C40400905EB09
:1006F0008000C0F8004130BD01F01F00844048096F
:1007000005EB8000C0F8804130BD00000CED00E03A
:1007100000E400E002490843024908607047000015
:100720000000FA050CED00E07047000010B51C4811
:100730000368001D0268001D01681AA000F0EEFBAE
:1007400025A000F0EBFB25A000F0E8FB33A137A0CB
:1007500000F0E4FB3AA13BA000F0E0FB3EA141A089
:1007600000F0DCFB00230222012143A000F0D6FBB5
:100770004FA000F0D3FB50A000F0D0FB54A000F03D
:10078000CDFB58A000F0CAFB5DA000F0C7FB64A041
:1007900000F0C4FBBDE8104010A000F0BFBB00009B
:1007A000107AFF1F0D0A435055203A2053544D3301
:1007B0003246343037494754362C204C514650315C
:1007C00037362C20554944203D20253038582025E7
:1007D00030385820253038580A0D00002A2A2A2A95
:1007E0002A2A2A2A2A2A2A2A2A2A2A2A2A2A2A2A69
:1007F0002A2A2A2A2A2A2A2A2A2A2A2A2A2A2A2A59
:100800002A2A2A2A2A2A2A2A2A2A2A2A2A2A2A2A48
:100810002A2A2A2A2A2A2A2A2A0A0D0046342D3070
:1008200030345FC5DCC2EDB5C60000002A20C0FD33
:10083000B3CCC3FBB3C62020203A2025730D0A0099
:10084000312E31002A20C0FDB3CCB0E6B1BE20204D
:10085000203A2025730D0A00323031332D31312DED
:10086000323000002A20B7A2B2BCC8D5C6DA202098
:10087000203A2025730D0A002A20B9CCBCFEBFE225
:10088000B0E6B1BE203A205625642E25642E25649C
:10089000202853544D3332463478785F5374645073
:1008A00065726970685F447269766572290D0A0025
:1008B0002A200D0A000000002A205151202020206B
:1008C0003A2031323935373434363330200D0A008E
:1008D0002A20CDFACDFA20203A2061726D666C791B
:1008E0000D0A00002A20456D61696C203A20617272
:1008F0006D666C794071712E636F6D200D0A00007A
:100900002A20CCD4B1A6B5EA3A2061726D666C7922
:100910002E74616F62616F2E636F6D0D0A000000AF
:100920002A20436F70797269676874207777772E11
:1009300061726D666C792E636F6D20B0B2B8BBC00A
:10094000B3B5E7D7D30D0A00044A19B111680143C2
:100950001160704711688143116070473038024060
:10096000044A19B11168014311607047116881434D
:100970001160704740380240044A19B111680143C0
:10098000116070471168814311607047443802401C
:1009900030B5254B196801F00C01244CF1B1244D00
:1009A00004291DD008291DD00460196801F0F00148
:1009B0000909204A545C0168E14041601C6804F464
:1009C000E054A40A145D21FA04F484601B6803F463
:1009D00060435B0BD25CD140C16030BD0460E4E792
:1009E0000560E2E7104A121F1168C1F3805C1168CC
:1009F00001F03F01BCF1000F06D0B5FBF1F1146826
:100A0000C4F38814614305E0B4FBF1F11468C4F346
:100A1000881461431268C2F30142521C5200B1FBB8
:100A2000F2F10160C1E70000083802400024F40040
:100A300040787D010D000020704700000020244A0E
:100A4000116841F4803111604FF4A043116801F442
:100A50000031401C09B99842F8D11068800301D5D3
:100A6000012000E00020012831D119484030016800
:100A700041F0805101601748016841F44041016034
:100A80001348083001680160016841F400410160C9
:100A9000016841F4A0510160011F0F4B0B60116808
:100AA00041F08071116011688901FCD50B4A40F258
:100AB00005711160016821F003010160016841F0D6
:100AC000020101600168C1F381010229FAD1704776
:100AD000003802400070004019544007003C0240BA
:100AE000AFF3008070B5164E706828B17068401E74
:100AF000706001D1012030700024124D04EB4400DD
:100B000005EB800000F040FD641CE4B2042CF5D33A
:100B1000B068401CB060B0686FF0004100248842AB
:100B200000D1B46000F02FFD7078401CC0B270702E
:100B30000A2804D37470BDE8704000F023BD70BD76
:100B4000000000203800002010B51248016841F470
:100B5000700101601048016841F0010101600E4A16
:100B600000210832116002680C4B1A400260031D1C
:100B70000B4A1A60026822F48022026006480C3098
:100B80000160FFF75BFF03494FF0006080390860A8
:100B900010BD000088ED00E000380240FFFFF6FEC7
:100BA00010300024014800F0DBB80000680000208D
:100BB000014800F0D5B8000090080020014800F07E
:100BC000CFB80000B8100020014904200880704709
:100BD0001804024001490420088070471A040240AA
:100BE000014800F0BDB80000E01800208A05C943A4
:100BF0000180704721B1818941F4005181817047A2
:100C0000818921F4005181817047024600201288B9
:100C10000A4200D00120704730B5002440F66A1225
:100C2000C1F3421301F01F0C012505FA0CF2012B50
:100C30000CD0022B0DD0838A1340090A8D40008806
:100C400028400BB100B10124204630BD83891340F8
:100C5000F3E7038A1340F0E740F66A13C1F3421347
:100C600001F01F0C012101FA0CF1012B07D0022B1E
:100C700007D014303AB102680A43026070470C3062
:100C8000F8E71030F6E702688A4302607047000018
:100C90007FB504460D46A889208A20F44051E88893
:100CA00008432082A08941F20C618843A9882A89DF
:100CB00011436A8902431143A181A08A20F4407143
:100CC000A8890843A0826846FFF762FE1E48844256
:100CD00002D01E48844201D1039800E00298A18905
:100CE000090408D500EBC00101EB00102968490098
:100CF000B0FBF1F007E000EBC00101EB0010296848
:100D00008900B0FBF1F06422B0FBF2F109010B099C
:100D10006FF018056B4300EB8300A3891D044FF0AF
:100D2000320307D503EBC000B0FBF2F000F0070080
:100D3000084306E003EB0010B0FBF2F000F00F00F8
:100D4000084320817FBD00000010014000140140D5
:100D50008088C0F308007047C1F3080181807047A4
:100D60002DE9F041044640F225512068FFF754FF79
:100D70000025C0B12068FFF7EBFFE28AA168885424
:100D8000E08A401C80B2E082E189884200D3E5829B
:100D9000608B884201D2401C6083608B012802D1A5
:100DA000606A00B1804740F2277739462068FFF734
:100DB00033FF40F2266600B3A08A90B1618A606872
:100DC000415C2068FFF7C8FF608A401C80B26082E7
:100DD000A189884200D36582A08A401EA082BDE816
:100DE000F081002239462068FFF736FF314620683F
:100DF000BDE8F0410122FFF72FBF31462068FFF721
:100E00000BFF0028EBD0A08A88B1618A6068415C42
:100E10002068FFF7A1FF608A401C80B26082A18930
:100E2000884200D36582A08A401EA082D7E70022B4
:100E300031462068FFF710FF206A0028CFD0BDE8B8
:100E4000F04100472D492C48086001F12800486016
:100E500000F5806088604FF480628A81CA8100203A
:100E600008824882C882088348838882C8610862F1
:100E7000486201F62801224B0B60224B4B6001F1C6
:100E800028038B6001238B815300CB810882488229
:100E9000C882088348838882C8610862486201F674
:100EA0002801194B0B6001F128034B6001F58563A4
:100EB0008B608A81CA8108824882C88208834883FD
:100EC0008882124BCB61124B0B62486201F62801FB
:100ED000104B0B6001F128034B6001F585638B60BB
:100EE0008A81CA8108824882C882088348838882AE
:100EF000C861086248627047001001406800002025
:100F0000004400400C00002000480040C90B0008CD
:100F1000D50B000800140140FEE700000FB4054B9C
:100F200010B503A9044A029800F018F810BC5DF847
:100F300014FB0000351600083400002002E008C849
:100F4000121F08C1002AFAD170477047002001E043
:100F500001C1121F002AFBD1704700002DE9FF4F8D
:100F60008DB005460F460026E9E1252879D10024F9
:100F70006D1CF74AA246A14601212B78203B01FABD
:100F800003F0104202D004436D1CF6E728782A28AB
:100F900010D06FF02F022878A0F13001092915D860
:100FA0000AEB8A0102EB410144F0020400EB010A62
:100FB0006D1CF0E757F804ABBAF1000F03DA44F404
:100FC0000054CAF1000A44F002046D1C28782E284F
:100FD00017D115F8010F44F004042A280ED06FF041
:100FE0002F022878A0F1300109290AD809EB8901DC
:100FF00002EB410100EB01096D1CF2E757F8049B7D
:101000006D1C28786C280FD006DC4C2817D0682877
:101010000DD06A2814D104E0742810D07A280FD19A
:101020000DE044F400140AE044F4801401E044F4B8
:1010300040146978814202D16D1C04F580146D1C46
:1010400095F800C0BCF16E0F2AD012DCBCF1630F22
:101050003CD007DCBCF1000F76D0BCF1580F19D1A1
:10106000A7E018E0BCF1640F6FD0BCF1690F11D19B
:101070006BE0BCF1730F32D006DCBCF16F0F71D0A6
:10108000BCF1700F06D196E0BCF1750F6BD0BCF1CE
:10109000780F69D06046DDE90F129047761C4DE16C
:1010A000C4F30250022806D003280AD0042801CF36
:1010B0000AD0066042E101CF4FEAE671C0E9006163
:1010C0003CE101CF068039E1067037E101CF8DF8B0
:1010D000000000208DF80100EB46012003E057F8E6
:1010E00004BB4FF0FF3061074FF0000102D40DE068
:1010F00008F10101884649450FDA8045F8DB1BF805
:1011000008100029F4D108E008F101018846814265
:10111000FADB1BF808100029F6D1DDE90F23AAEB52
:1011200008008146214600F03CF9304400EB0806F7
:1011300004E0DDE90F121BF8010B9047B8F101083C
:10114000F7D221464846F4E0FDE00A21C4F30252FA
:101150004FF0000B0891022A07D001CFC117032AD4
:1011600009D00AE030E022E023E0FF1D27F0070766
:10117000F7E8020105E000B2C117042A01D140B22C
:10118000C117002906DA0023D0EB030063EB01014D
:101190002D2202E0220504D52B228DF824200122E5
:1011A00003E0E20701D02022F7E790464EE00A2153
:1011B0000BE0102109E010214FF0000B44F0040473
:1011C0004FF00809089103E008214FF0000B089147
:1011D000C4F30252022A04D001CF0021032A06D010
:1011E00007E0FF1D27F00707F7E8020105E080B2DE
:1011F0000021042A01D1C0B200214FF000082207CB
:1012000024D5BCF1700F29D0089B83F0100353EA5A
:101210000B0309D150EA010206D030228DF82420B8
:101220008DF825C002229046089B83F0080353EAFC
:101230000B030BD150EA010201D1620706D530221F
:101240008DF824204FF00108A9F10109BCF1580FD5
:1012500009D040A20B9208AA0A9211E040228DF810
:1012600024200122DFE740A2F4E75B46089AFEF75C
:10127000A7FF0B9B9B5C0A9AA2F101020A921370D2
:1012800050EA0102F1D10A98ADEB000000F1200B09
:10129000600702D524F4803401E04FF00109D945FC
:1012A00002DDA9EB0B0000E0002000EB0B01414444
:1012B0000890AAEB01000B90E00306D4DDE90F23B0
:1012C00021460B9800F06DF806444FF000090DF12F
:1012D000240A07E0DDE90F121AF809009047761C8E
:1012E00009F10109C145F5DBE0030CD5DDE90F2368
:1012F00021460B9800F055F8064404E0DDE90F1292
:1013000030209047761C0899481E08900029F5DC8B
:1013100008E00A980A990078491C0A91DDE90F1241
:101320009047761CBBF10001ABF1010BF1DC0B988F
:101330002146DDE90F2300F021F806446D1C2878D2
:1013400000287FF412AE11B03046BDE8F08F0000E7
:10135000092801003031323334353637383961628B
:10136000636465660000000030313233343536374F
:101370003839414243444546000000002DE9F04120
:101380000446002517461E46880405D406E0394663
:101390002020B04705F10105641EF8D52846BDE8B8
:1013A000F0812DE9F0410446002590461E46C80311
:1013B00001D5302700E02027880405D506E0414606
:1013C0003846B04705F10105641EF8D52846BDE84A
:1013D000F0810000042801D30020704700EB400199
:1013E000054800EB81004178012901D000207047B9
:1013F000002141700120704738000020704710B56F
:1014000000F070F800F042F8BDE81040AFF3008043
:101410001CB501214FF49270FFF796FA012000F0FD
:101420006BF8022000F068F8032000F065F8042053
:1014300000F062F801208DF8040000208DF806000D
:101440008DF8070003208DF805004FF480600090B0
:1014500069460B48FEF74BFF80200090094C694617
:101460002046FEF744FFA115009169462046FEF78D
:101470003EFF0420009069460348FEF738FF1CBD7C
:1014800000200240001402400008024010B5002075
:10149000114C002300EB400204EB82014B608B6097
:1014A0004B7004F82230401CC0B20428F2D30B4821
:1014B0004FF47A710068B0FBF1F0401EB0F1807F0C
:1014C00008D24FF0E0214861054AF02010708B618E
:1014D0000720086110BD0000380000202000002017
:1014E00023ED00E010B5FFF7ADFCFEF773FFBDE89C
:1014F0001040FEF7C9BE0000401EC0B250B10B49FB
:1015000001280CD002280DD0032802D1084904205C
:101510000880704707494FF4806008837047802037
:10152000088070474FF4807008807047181402409C
:10153000180802400020024001280CD00E49022861
:101540000FD0032812D0042804D10C48016881F080
:101550000401016070470A48416981F4806141617A
:101560007047086880F0800008607047086880F461
:101570008070086070470000141402401408024094
:101580000020024070477047416800290AD0416836
:10159000491E416006D1012141700178012901D124
:1015A000816841607047000010B5042805D30C4ADB
:1015B0000CA117A0FFF7B2FCFEE7012282F310880E
:1015C0001B4B00EB400203EB820041608160002175
:1015D0004170012003F8220081F3108810BD000043
:1015E000A11600082E2E5C2E2E5C557365725C626F
:1015F00073705F73746D3332663478785C737263C2
:101600005C6273705F74696D65722E630000000028
:101610004572726F723A2066696C652025732C20C2
:1016200066756E6374696F6E20257328290D0A0034
:101630003800002070B50446064DE1B22846FFF799
:101640008BFB40212846FFF7E0FA0028F9D020461E
:1016500070BD000000100140FFF7D1FEFFF766F8F3
:101660004FF4FA710020FFF79FFFFFF7C7FE00203D
:10167000FFF7B0FE0028F8D00420FFF75DFF03203D
:10168000FFF75AFF0220FFF757FF0120FFF754FF33
:10169000EBE76273705F537461727454696D6572C5
:1016A000006273705F53746172744175746F546932
:1016B0006D6572006273705F53746F7054696D650D
:1016C00072000000E416000800000020380000004E
:1016D0003C0F00081C17000838000020D024000030
:1016E0004C0F000800000000000000000000000097
:1016F00000000000000102030401020304060708C1
:1017000009000000007A030A000000000000000049
:0C171000010203040607080900000000A5
:040000050800018965
:00000001FF
