:020000040800F2
:1000000010420020352300080121000803210008C8
:100010001F21000821210008232100080000000002
:100020000000000000000000000000002521000882
:10003000272100080000000029210008491E0008AF
:100040006B210008792300087D2300088123000824
:1000500085230008892300088D23000891230008C8
:1000600095230008992300089D230008A123000878
:10007000A5230008A9230008AD230008B123000828
:10008000B5230008B9230008BD230008C1230008D8
:10009000C5230008C9230008CD230008D123000888
:1000A000D5230008D9230008DD230008E123000838
:1000B000E5230008E9230008ED230008F1230008E8
:1000C000F5230008F9230008FD2300080124000897
:1000D00005240008092400080D2400081124000844
:1000E000152400089D2100081D2400082124000873
:1000F00025240008292400082D24000831240008A4
:1001000035240008392400082B2100084124000868
:1001100045240008492400084D2400085124000803
:1001200055240008592400085D24000861240008B3
:1001300065240008692400086D2400087124000863
:1001400075240008792400087D2400088124000813
:1001500085240008892400088D24000891240008C3
:1001600095240008992400089D240008A124000873
:10017000A5240008A9240008AD240008B124000823
:10018000B5240008B9240008E0B5002000F0DCFC2C
:1001900043F2F22188420FD000F059F80FF2BC3040
:1001A00000F04AFD7B2000F0EDFD00282DD00FF27D
:1001B000C03000F041FD28E00FF2C43000F03CFDFB
:1001C0007B2000F0DFFD002804D00FF2A43000F007
:1001D00033FD08E07A2000F0D5FD002803D00FF2AF
:1001E000B03000F029FD01214FF0805000F0B4FD47
:1001F000012000F0F5FD00F009FB4FF4807000F0E5
:10020000CBFC4FF4003000F027FE4FF4003000F03C
:1002100023FE4FF40030019000208DF808000820E4
:100220008DF8090001208DF80A0001A800F0DEFD1C
:1002300029208DF8000000208DF801008DF80200C3
:1002400001208DF8030000A800F00EFE07BD10B5D8
:1002500001214FF0805000F07FFD012000F0C0FD33
:10026000012000F0FBFC412000F08CFD0028FAD0BA
:100270004FF4807000F04DFDB64CFF20A0627F204F
:100280006062012000F05AFD00F0C0FA606AE0618F
:10029000A06A20620020A06104F1180000F06CFA4E
:1002A0001320E075012060751120A07506202075CF
:1002B00004F11401012000F03FFB0020E074052050
:1002C0002074202060740020A07404F1100101202B
:1002D00000F0BEFA43F2F221002000F028FC0020DA
:1002E000E07005202070202060703020A070312048
:1002F00020730020A0604FF00040606022464FF461
:100300008071012000F08CFB01214FF4805000F03F
:1003100028FC01214FF4807000F0E0FB4FF4807066
:10032000BDE8104000F038BC10B582B0894C04F133
:100330001001002000F0DBFAA07C0090637C227C9E
:100340000FF25C2104F12C0000F0C4FD13BD1CB5BC
:10035000804C04F11401002000F03EFB207D019050
:10036000A07D0090637DE27D0FF2482104F12C0016
:1003700000F0B0FD13BD2DE9F843FF242746A04649
:10038000A1460FF2502000F057FC724D0020E87497
:100390000FF2782000F050FC04E0172000F0A2F8E3
:1003A00007462F74FF2FF8D00FF2702639463046DB
:1003B00000F042FC0FF2702000F03EFC05E03B2014
:1003C00000F090F8804685F81180B8F1FF0FF6D064
:1003D0004146304600F030FC0FF25C2000F02CFC6F
:1003E00005E03B2000F07EF8814685F81290B9F1D7
:1003F000FF0FF6D04946304600F01EFC05F1100113
:10040000002000F025FA002804D10FF23C2000F073
:1004100013FC0AE00FF2542000F00EFCFFF784FFFB
:1004200043F2F221002000F082FB2746A046002183
:100430004FF4807000F052FB0FF2542000F0FCFBF0
:100440000020E8700FF2802000F0F6FB04E0172097
:1004500000F048F807462F70FF2FF8D03946304695
:1004600000F0EAFB0FF2742000F0E6FB04E03B2012
:1004700000F038F804466C70FF2CF8D02146304666
:1004800000F0DAFB0FF2682000F0D6FB05E03B201D
:1004900000F028F8804685F80280B8F1FF0FF6D00A
:1004A00041460FF2602000F0C7FB31202873002086
:1004B000A8604FF0004068602A464FF48071002029
:1004C00000F0AEFA0FF2442000F0B6FB01214FF429
:1004D000805000F046FB01214FF48070BDE8F443EA
:1004E00000F0FCBA7CB50446002500A829460A465F
:1004F00006C01AE0184E2021304600F06FFD00289B
:10050000F8D0304600F066FD00A941F825006D1CCA
:1005100000A800EB850050F8040C30380A2804D3FA
:100520000FF2102000F088FB6D1E022DE2D301981F
:10053000009901EB810200EB4200A0F504708442B7
:1005400006D221460FF20C2000F076FBFF2076BD8C
:10055000C0B276BD0401002000100140B5DAD2BB64
:10056000B4CECAB9D3C3525443200A0D00000000D0
:10057000B7A2C9FAC9CFB5E7B8B4CEBB200A0D00FF
:10058000B5DA6EB4CECAB9D3C3525443200A0D00B3
:10059000B7A2C9FAD2FDBDC5B8B4CEBB200A0D00C2
:1005A00025302E32643A25302E32643A25302E32F0
:1005B00064000000C4EA25302E3264D4C225302EF7
:1005C0003264C8D525302E3264D0C7C6DA25302E25
:1005D000316400000A0D3D3D3D3D3D3D3D3D3D3D0D
:1005E0003D3D3D3D3D3D3D3D3DCAB1BCE4C9E8D644
:1005F000C33D3D3D3D3D3D3D3D3D3D3D3D3D3D3DA5
:100600003D3D3D3D3D3D3D3D0A0D00002020C7EBF9
:10061000C9E8D6C3D0A1CAB13A0A0D0020202530BE
:100620002E32640A0D0000002020C7EBC9E8D6C3B3
:10063000B7D6D6D33A0A0D002020C7EBC9E8D6C3F7
:10064000C3EB3A0A0D0000000A0D3E3E2021212096
:1006500052544320CAB1BCE4C9E8D6C3CAA7B0DC2F
:10066000202121203C3C0A0D000000000A0D3E3EE6
:100670002021212052544320CAB1BCE4C9E8D6C38A
:10068000B3C9B9A6202121203C3C0A0D000000007E
:100690000A0D3D3D3D3D3D3D3D3D3D3D3D3D3D3DED
:1006A000416C61726D204120C9E8D6C33D3D3D3D9E
:1006B0003D3D3D3D3D3D3D3D3D3D3D3D3D3D3D3D6A
:1006C0003D3D3D3D3D0A0D002020C7EBC9E8D6C3A6
:1006D000C4D6D6D3D0A1CAB13A0A0D002020C7EBA8
:1006E000C9E8D6C3C4D6D6D3B7D6D6D33A0A0D00F6
:1006F0002020C7EBC9E8D6C3C4D6D6D3C3EB3A0A89
:100700000D000000202025302E3264000A0D3E3EF0
:100710002021212052544320C9E8D6C320416C61D6
:10072000726D20B3C9B9A62E202121203C3C0A0DB0
:10073000000000000A0D20D3D0D0A7CAFDBEDDB155
:10074000D8D0EBD4DA203020BACD203920D6B1BDB4
:10075000D30A0D000A0D20D3D0D0A7CAFDBEDDB14B
:10076000D8D0EBD4DA203020BACD20256420D6B101
:10077000BDD30A0D0000000070B504460026DFF866
:100780007854CA20E8615320E86100F018F8002886
:1007900011D0286820F040002860286821680843AC
:1007A0002860A068A860A868616840EA0140A86065
:1007B00000F025F80126FF20E861304670BD81B0C9
:1007C00000200090DFF834040168490614D44FF08B
:1007D000FF310160016801F04001009A521C009253
:1007E000009AB2F5803F01D00029F3D00068C0B272
:1007F000800900F0010000E0012001B07047DFF83F
:10080000FC03016821F080010160704781B0002085
:100810000090DFF8E813CA208861532088610868D7
:1008200020F0A0000860086800F02000009A521C28
:100830000092009AB2F5003F01D00028F3D008687A
:10084000C0B2400900F00100FF228A6101B0704788
:10085000F8B507460E460024DFF89853002FA86825
:1008600004D140060AD42046F07007E0400603D5C4
:10087000307800F0D8F901E02046F0703078002F91
:1008800009D07178090241EA0040B1780843F17853
:1008900040EA01460FE000F0BBF90746707800F02F
:1008A000B7F9000240EA0747B07800F0B1F93843E1
:1008B000F17840EA0146CA20686253206862FFF777
:1008C0007EFF00280FD0DFF8380330402860FFF7A4
:1008D00096FFA868800605D4FFF798FF002802D08D
:1008E000012400E00124FF2068622046F2BD10B51B
:1008F0000C46DFF800130968DFF8042311400A0CE6
:1009000002F03F0323700B0A03F07F03637001F0D2
:100910007F01A17002F04001E17000280BD1207826
:1009200000F081F92070607800F07DF96070A078A7
:1009300000F079F9A07010BD70B506460D46002490
:10094000002E06D16878C10603D500F0EF000A300A
:100950006870002E05D0687800F065F9A87800F07E
:1009600062F9E878002E09D06978090241EA00406E
:10097000A9780843297840EA41360FE000F048F9A9
:100980000646687800F044F9000240EA0646A87876
:1009900000F03EF93043297840EA4136DFF86452EE
:1009A000CA20286253202862FFF709FF00280FD0D1
:1009B000DFF8540230402860FFF721FF68688006A6
:1009C00005D4FFF723FF002802D0012400E0012412
:1009D000FF202862204670BD10B50C46DFF82412B7
:1009E0000968DFF8242211400A0CE2700A0A02F0BA
:1009F0001F02627001F03F02A270490B01F0070173
:100A0000217000280BD1E07800F00DF9E0706078DB
:100A100000F009F96070A07800F005F9A07010BD31
:100A20002DE9F04107460C461646DFF8CC51002F61
:100A3000286804D1400613D40020F07010E040066E
:100A400003D5307800F0EFF801E00020F070307B43
:100A5000B168002902D100F0E6F801E000F0E3F807
:100A60003078002F10D07178090241EA0040B17847
:100A70000843F17840EA0140317B40EA0160B16807
:100A80000843716808431AE000F0C2F8074670781E
:100A900000F0BEF88046B07800F0BAF84FEA0821BE
:100AA00041EA07410843F17840EA0147307B00F012
:100AB000AFF847EA0060B168084371680843CA218B
:100AC000E9615321E9614FF480718C4201D1686181
:100AD00000E0A861FF20E861BDE8F08138B40A4673
:100AE00000210091DFF81031CA24DC615324DC615D
:100AF000002A04D0196808431860012112E01A681E
:100B000082431A60020A5C681440009D6D1C0095C7
:100B1000009DB5F5803F01D0002CF4D058681042FC
:100B200000D00121FF20D861084632BC704781B057
:100B300000220092354A0092009A02EB8000009059
:100B40000098016001B0704781B0002100912F49E9
:100B50000091009901EB800000900098006801B0BE
:100B60007047254ACA23D3615323D36100F004039D
:100B700020F004000029116805D008431060906B34
:100B80001843906305E021EA00001060906B9843E1
:100B90009063FF20D0617047184980B240F0800018
:100BA0000A6802F0800262EA00000860704710B430
:100BB0000021114A936B03F004031468044003EA14
:100BC000D0332343526802EA101003D080B20028C9
:100BD00000D00121084610BC70470849000980B2C6
:100BE00040F080000A6802F0800262EA00000860BB
:100BF0007047000000280040082800400C280040F2
:100C00007F7F7F00042800403FFFFF005028004006
:100C1000002101E0491C0A38C0B20A28FAD240EA91
:100C20000110C0B27047010901EB810200F00F0012
:100C300000EB4200C0B270470EB400B582B003A909
:100C4000009100AB02460121034878440A3000F0CD
:100C5000CFF906BC5DF810FBB9160000DFF854119F
:100C600000220A700A70012802D0042803D07047BD
:100C700001200870704705200870704710B44E4975
:100C80004A6802F00C02042A02D0082A03D022E0AB
:100C90004B4A026021E00A68C2F380520B6803F0FD
:100CA0003F03002A07D0464AB2FBF3F20B68C3F3B6
:100CB00088135A4306E0434AB2FBF3F20B68C3F3CE
:100CC00088135A430B68C3F301435B1C5B00B2FB00
:100CD000F3F2026001E03B4A02604A6802F0F0036E
:100CE000394A1B099B5C046824FA03F343604C688F
:100CF00004F4E054A40AA45CE3408360496801F46E
:100D00006041490B895C426822FA01F1C16010BC64
:100D100070472A494FF4407202404FF440739A42A0
:100D200006D10A6822F4F812284B03401A430A60DD
:100D30008A6E000552EA10508866704724490860A0
:100D40007047244A0029116802D008431060704798
:100D500021EA0000106070471F4A0029116802D084
:100D600008431060704721EA0000106070471B4A7A
:100D70000029116802D008431060704721EA000082
:100D80001060704700214209094B012A01D11A68FD
:100D900004E0022A01D11A6F00E05A6F012300F02B
:100DA0001F0003FA00F0024200D0194608467047BF
:100DB00000380240703802400438024008380240CF
:100DC00040787D010024F40054000020FFFCFF0F58
:100DD0003C0E47423038024040380240443802401E
:100DE000014908607047000020000E4230B40168DD
:100DF000CB431B498279002A27D00A461468234036
:100E0000136053680468A34353600379CC182368C4
:100E100005682B43236093680468A3439360D368F9
:100E20000468A343D36043790568102B07D1916808
:100E300029439160D16800680843D0600AE051FA04
:100E400083F420682843206004E000790C182068AF
:100E50001840206030BC70470249086070470000AD
:100E6000003C0140143C014070B403781A46012153
:100E7000C478002C1DD0134B1B6803F4E063C3F54A
:100E8000E0631B0A4478C3F10405AC4085780F2663
:100E900046FA03F32B4023431B010B4C13550078F8
:100EA00042110A4B00F01F0001FA00F043F8220043
:100EB00006E05011064A03F01F03994042F8201043
:100EC00070BC70470CED00E000E400E000E100E0E1
:100ED00080E100E00CB41CB5044604A80190009425
:100EE00001AB0A4600A907487844183000F080F8A2
:100EF000009900220A7000285CBF0098001B16BCF5
:100F00005DF80CFB4F0A000030B585B004460D4675
:100F1000208A4CF6FF710840E98808432082A089A6
:100F20004EF6F3110840A9880843298908436989C6
:100F30000843A081A08A4FF6FF410840A9890843D1
:100F4000A08200A8FFF79AFE1848844202D01848F1
:100F5000844201D1039800E0029829681922504385
:100F6000A289120403D54900B0FBF1F102E0890027
:100F7000B0FBF1F16422B1FBF2F00001030902FBC6
:100F80001311A3891B0407D5C9003231B1FBF2F15B
:100F900001F00701084306E009013231B1FBF2F12B
:100FA00001F00F010843208105B030BD0010014061
:100FB000001401400029818903D041F4005181814E
:100FC00070474DF6FF72114081817047C905C90D08
:100FD000818070478088C005C00D7047002200885E
:100FE000084200D0012210467047C9430180704773
:100FF0002DE9F04F93B0814617461D46029102AE8F
:10100000002009E017F8011B0298C8470290002849
:1010100000F0CF81B069401CB061387808B9B06980
:10102000C9E12528EED10020F0603061706101E057
:1010300040F0010017F8011F2029F9D023290ED014
:101040002B2904D02D2906D030290CD00FE040F0F8
:10105000020080B2EEE740F0040080B2EAE740F020
:10106000080080B2E6E740F0100080B2E2E72A29EB
:101070000DD129680A1D2A6009683162002904D54A
:101080004942316240F0040080B27F1C13E000212D
:1010900031620BE0316A6FF00043994205D001EBF9
:1010A000810302EB4301303931627F1C3A78A2F1AF
:1010B00030010A29EED339782E291CBF4FF0FF31B9
:1010C000F1611ED117F8011F2A2906D129680A1DCE
:1010D0002A600968F1617F1C13E00021F1610BE0D7
:1010E000F1696FF00043994205D001EB810302EBF7
:1010F00043013039F1617F1C3A78A2F130010A29AD
:10110000EED3B08439780FF2843000F0C3F908B11F
:1011100017F8010B8DF82E009DF82E00682804BFEB
:101120003878682803D162208DF82E007F1C0CA827
:10113000B0603A78252A00F0B980582A30D0632A66
:1011400000F0A380642A18BF692A64D06F2A27D0D0
:10115000702A1CD0732A04D0752A18BF782A1FD091
:101160009DE02868011D296000687060F269002A0E
:1011700003D500F0B1F930619DE0002100F0D8F90D
:1011800000281ABF7168401AF069306193E028683E
:10119000011D2960006801900CA87060782170E042
:1011A0009DF82E306C2B08BF286811D0712B08BF1A
:1011B000286802D06A2B28680AD1C01D20F00700D9
:1011C0002860014601F108002860D1E9000102E031
:1011D000011D296000680190682B04BF01A80088E8
:1011E00003D0622B02D101A80078019096F8240068
:1011F000000741D5019800283ED042F02000782811
:101200003AD1F0680CA930234354401C411CF160D2
:101210000CA9425430E09DF82E00622802D06828C4
:1012200006D00BE02868011D296090F9000009E054
:101230002868011D2960B0F9000003E02868011D3D
:10124000296000680190002805D5F068411CF16014
:101250000CA92D230FE0B08C810705D5F068411C47
:10126000F1600CA92B2306E0C00705D5F068411CEE
:10127000F1600CA920234354F0680CA94018706059
:10128000114601A800F09AF815E0F068411CF160E1
:1012900029680A1D2A600CAA096881540BE0F068CD
:1012A000411CF1600CA92523435422B1F068411C74
:1012B000F1600CA942547F1C306AF168401A7169D0
:1012C000401A3169A0EB010896F82400400719D4B0
:1012D00020208DF80000B8F1010F13DB44464FF0D9
:1012E000010A0DF1000B1BF8011B0298C847029080
:1012F00000285ED0B069401CB061BAF1010AF2D199
:10130000641EECD1F4680DF1300A5CB11AF8011BCF
:101310000298C847029000284BD0B069401CB061C9
:10132000641EF3D130208DF80000D6F814B0BBF164
:10133000010F10DB01240DF1000A1AF8011B0298BD
:10134000C8470290A8B3B069401CB061641EF4D1D4
:10135000BBF1010BEED13469D6F804A054B11AF8F0
:10136000011B0298C847029018B3B069401CB061D5
:10137000641EF4D196F8240040077FF54EAE20207D
:101380008DF80000B8F1010FFFF647AE01240DF112
:10139000000A1AF8011B0298C847029048B1B069C8
:1013A000401CB061641EF4D1B8F101083FF435AEC1
:1013B000ECE74FF0FF3013B0BDE8F08FF0B4C26837
:1013C0006F2908BF082405D041F02003782B14BFF3
:1013D0000A241024182305682E46642918BF692999
:1013E00002D1002D48BF7642002E04BF056A002DB1
:1013F00009D1082C27D190F82810090723D51723E5
:101400003021D1751FE05D1E2B46B6FBF4F704FBBF
:1014100017663036F6B23A2E24BFA1F1510C66445D
:10142000AE543E0003D085689F18BD42EBD3082C14
:1014300009D190F82810090705D5995C302902D008
:101440005B1E30219954C3F1180141619A188260E2
:10145000026A914207DA511A8161018D4FF6EF72EB
:101460001140018510E0002A0ED590F8282002F0E6
:101470001402102A08D1426A0369D21A8369D21A67
:10148000531A012BA8BF8361F0BC7047686C747A53
:101490004C0000000278C9B28A421AB11CBF10F891
:1014A000012FF9E718BF0020704710B450F8041B53
:1014B00081B102681218001D50F8043BDC0744BFDC
:1014C000A9F10104E31852F8044B43F8044B091F37
:1014D000F9D1EBE710BC704700F10103810704D09C
:1014E00010F8011B89B18107FAD10268B2F101310C
:1014F000914311F0803F04BF50F8042FF6E710F835
:10150000011B11B110F8011BFBE7C01A704750F81E
:10151000041B61B150F8042BD30744BFA9F10103A8
:101520009A18002342F8043B091FFAD1EFE77047ED
:10153000C9B2830706D0521E22D310F8013B99424C
:10154000F7D11FE0083A13D302F1040241EA012166
:1015500041EA014150F8043B121F21BF4B40A3F167
:10156000013C2CEA030C1CF0803FF3D0C9B2001FF1
:10157000083210F8013B521E28BF91EA030FF8D839
:1015800018BF0120401E7047B04800684FF48071BA
:101590000140481E8041C00F7047AD48006800F40C
:1015A0000051481E8041C00F7047A848006800F4F1
:1015B0000061481E8041C00F7047A648006800F0D7
:1015C0000401481E8041C00F7047A248006800F027
:1015D0000801481E8041C00F70479F48006800F412
:1015E0000061481E8041C00F70479C48006800F0B1
:1015F0008001481E8041C00F70479648006800F483
:101600000041481E8041C00F704780B5FFF7BCFF06
:10161000002805D0FFF7C1FF002801D0012002BD3E
:10162000002002BD80B5FFF7AFFF002805D0FFF70F
:10163000B4FF002801D0012002BD002002BD80B50A
:1016400000F064F8BDE801401BE08549CA7A5054B7
:10165000C87A401CC872C0B20A2801D30020C872E0
:1016600070477F498A7AC87A824201D10020704748
:10167000505C521C8A72D2B20A2A01D300228A72AA
:10168000704730B583B001214FF4F270FFF759FB7A
:1016900000208DF80400ADF8060002208DF805004A
:1016A0004FF480700090704D00A9284600F004F9B6
:1016B0004FF40050009000A96C4800F0FDF84FF482
:1016C0000064009400A9284600F0F6F80420009079
:1016D000674D00A9284600F0EFF80820009000A907
:1016E000284600F0E9F8009400A9624800F0E4F808
:1016F0008020009000A9604800F0DEF84FF4004020
:10170000009000A9284600F0D7F837BD54480021C2
:10171000418101730AE000EB011064220281022280
:10172000027100228272C2720273491C4D480A295A
:10173000F1DB64210187052180F83B106421A0F8CA
:101740004810052180F84B106421A0F8581005219D
:1017500080F85B106421A0F86810052180F86B10F8
:1017600046490160464901614649016246490163B3
:101770004649016446490165464901664649016793
:101780004649C0F880104649C0F89010704738B5F7
:101790000446344800EB041528688047002828795F
:1017A0003AD0052802D20520287131BD0A2802D27C
:1017B000401C287131BDA87A002807D10120A872E9
:1017C00004EB4400401CC0B2FFF73FFF288900280B
:1017D0003AD0E98881420CD2481CE880298980B23D
:1017E000884231D104EB4400C01CC0B2BDE8324095
:1017F0002BE7E87A002827D0287B401C2873E97A59
:10180000C0B2884220D30020287304EB4400401C5F
:10181000C0B2BDE8324018E7062802D3052028717F
:101820000FE0002802D0401E28710AE0A87A0128A3
:1018300007D10020A87204EB4400801CC0B2FFF75F
:1018400004FF0020E880287331BD00001020024012
:1018500010080240101C02401014024010180240F0
:10186000E401002064000020002002400008024043
:10187000001C0240001402400018024089150008B4
:101880009B150008AB150008BB150008CB15000818
:10189000DB150008EB150008FB1500080B16000807
:1018A0002516000810B5002403E02046FFF76FFF5F
:1018B000641C0A2CF9D310BDF0B4002232E00123DD
:1018C00093400C681C409C422BD154000325A5403A
:1018D000ED4306682E40066006680F79A7403E4338
:1018E00006600E79012E01D0022E11D186682E409D
:1018F000866086684F79A7403E438660466826EA40
:101900000303436043688E799640B6B23343436025
:10191000C3682B40C360C368CD7905FA04F4234340
:10192000C360521C102ACAD3F0BC704710B4CB104D
:1019300000EB830001F007018900036A0F248C404B
:10194000A3430362036A02FA01F11943016210BC66
:1019500070470268531C03601170704710B500F0A7
:101960005FF900F0AFF900F02DF8FEF70DFC4FF431
:101970007A71002000F02BFA374C002000F045FA75
:10198000002816D0022000F008FB032000F005FB21
:10199000042000F002FBFEF7DAFC21460FF2C00043
:1019A000FFF74AF9FEF7C0FC21460FF2BC00FFF733
:1019B00043F9FFF756FE0028DFD00228DDD1FEF7FD
:1019C000DAFCDAE710B525480368426881680FF24F
:1019D000A800FFF731F91EA0FFF72EF90FF2D0048F
:1019E0002046FFF729F90FF21C110FF20410FFF740
:1019F00023F918A10FF22410FFF71EF90FF244117A
:101A00000FF22C10FFF718F90023022201210FF228
:101A10004010FFF711F90FF27010FFF70DF90FF2F8
:101A20007010FFF709F90FF28010FFF705F90FF2B8
:101A30008C10FFF701F90FF2A010FFF7FDF80FF27D
:101A4000B810FFF7F9F82046BDE81040FFF7F4B8EA
:101A50000A0D0000312E310030010020107AFF1FE6
:101A600025730D0A00000000B5B1C7B0CAB1BCE4CF
:101A700025730D0A000000000D0A435055203A203E
:101A800053544D333246343037494754362C204C6A
:101A90005146503137362C20554944203D202530C1
:101AA0003858202530385820253038580A0D000085
:101AB0002A2A2A2A2A2A2A2A2A2A2A2A2A2A2A2A86
:101AC0002A2A2A2A2A2A2A2A2A2A2A2A2A2A2A2A76
:101AD0002A2A2A2A2A2A2A2A2A2A2A2A2A2A2A2A66
:101AE0002A2A2A2A2A2A2A2A2A2A2A2A2A0A0D00BD
:101AF0002A20C0FDB3CCC3FBB3C62020203A20254A
:101B0000730D0A0046342D303031315F48575F4342
:101B1000616C656E646172CAB5D1E9002A20C0FDAE
:101B2000B3CCB0E6B1BE2020203A2025730D0A00C8
:101B30002A20B7A2B2BCC8D5C6DA2020203A202578
:101B4000730D0A00323031332D31322D3131000026
:101B50002A20B9CCBCFEBFE2B0E6B1BE203A205686
:101B600025642E25642E2564202853544D33324697
:101B70003478785F5374645065726970685F44723A
:101B800069766572290D0A002A200D0A00000000FE
:101B90002A205151202020203A2031323935373443
:101BA00034363330200D0A002A20CDFACDFA202019
:101BB0003A2061726D666C790D0A00002A20456D2D
:101BC00061696C203A2061726D666C794071712E8A
:101BD000636F6D200D0A00002A20CCD4B1A6B5EAAF
:101BE0003A2061726D666C792E74616F62616F2E3E
:101BF000636F6D0D0A0000002A20436F70797269CF
:101C0000676874207777772E61726D666C792E63C2
:101C10006F6D20B0B2B8BBC0B3B5E7D7D30D0A0023
:101C200010B586B001210846FFF78BF8012110207E
:101C3000FFF79DF8214C072209212046FFF776FE89
:101C400007220A212046FFF771FE00208DF80600CA
:101C500001208DF8070002208DF804004FF4007079
:101C6000009002208DF8050000A92046FFF724FE11
:101C700002208DF804004FF48060009000A92046F7
:101C8000FFF71AFE4FF4E130029000200390ADF808
:101C90001000ADF814000C20ADF81200084C02A999
:101CA0002046FFF731F901212046FFF783F9402153
:101CB0002046FFF79AF906B010BD00BF00000240B1
:101CC0000010014080B500F015F9FFF7B8FCBDE841
:101CD000014000F024B8FFF7E5BD70470901002876
:101CE00006D500F00F00524A801800F8041C704717
:101CF000504A8154704710B5401EB0F1807F01D327
:101D0000012010BD4C4C60600F214FF0FF30FFF7F9
:101D1000E5FF0020A06007202060002010BD18B45F
:101D20000020464A044609E000EB400189008B1878
:101D30005C609C605C7023468B54401C0428F3DB81
:101D40003F4800684FF47A71B0FBF1F012BCD2E763
:101D500038B53C4C6068002805D06068401E606063
:101D600001D101202070002507E005EB4500334933
:101D700001EB800000F01CF86D1C042DF5D3A06869
:101D8000401CA060A0686FF00041884201D1002093
:101D9000A060FFF7A2FF6078401C6070C0B20A2804
:101DA00005D300206070BDE83140FFF794BF31BD1E
:101DB000416800290AD04168491E416006D10121CD
:101DC00041700178012901D181684160704780B577
:101DD000042808D30FF208120FF290010FF26C00E2
:101DE000FEF72AFFFEE7012282F3108800EB400293
:101DF0009000124A8318596099600021597001219E
:101E00008154002080F3108801BD042801D30020F4
:101E1000704700EB4001094800EB8100417801293F
:101E200003D100214170012070470020704700005D
:101E300018ED00E000E400E010E000E0B401002054
:101E400050000020F401002082E700004572726F0C
:101E5000723A2066696C652025732C2066756E6366
:101E600074696F6E20257328290D0A00443A5C4975
:101E70006E7374616C6C5061636B6167655C6172F9
:101E80006D666C792D7635BBF9B4A1CDE2C9E8BD9C
:101E9000CCB3CC5CB5DACAAED2BBC6DAA3BA525464
:101EA00043CAB5D1E95CB5DACAAED2BBC6DAA3BAC9
:101EB0005254435F43616C656E6461725C55736537
:101EC000725C6273705F73746D3332663478785C01
:101ED0007372635C6273705F74696D65722E630008
:101EE0006273705F53746172744175746F54696D7D
:101EF000657200001CB501214FF49270FEF721FFBE
:101F0000012000F02EF8022000F02BF8032000F052
:101F100028F8042000F025F801208DF804000020A6
:101F2000ADF8060003208DF805004FF480600090A6
:101F300000A92A48FFF7C0FC80200090284C00A987
:101F40002046FFF7B9FC4FF48070009000A92046AE
:101F5000FFF7B2FC0420009000A92248FFF7ACFC78
:101F600013BD401EC0B2002804D11F484FF4806149
:101F700001807047012803D11C48802101807047EF
:101F8000022804D119484FF480710180704703285A
:101F900002D11748042101807047012805D1154856
:101FA000016881F4806101607047022805D1124800
:101FB000016881F0800101607047032806D10E4856
:101FC00001684FF48072514001607047042804D1C9
:101FD0000A48016881F00401016070470020024056
:101FE0000014024000080240182002401814024069
:101FF0001808024014200240141402401408024041
:1020000080B53748016841F47001016035480168C6
:1020100041F001010160002181600168324A1140F4
:10202000016032494160016821F480210160002192
:10203000C16000F005F82E484FF00061016001BD5D
:1020400082B00020019000902648016841F4803160
:102050000160016801F4003100910199491C01916E
:102060000099002903D10199B1F5A04FF1D1016880
:10207000490C01F001010091009901292CD1016C5A
:1020800041F0805101641B490A6842F440420A60F1
:1020900081688160816841F400418160816841F418
:1020A000A051816014494160016841F08071016074
:1020B00001688901FCD5114940F205720A60816806
:1020C000890889008160816841F00201816081682E
:1020D00001F00C010829FAD102B07047000000009D
:1020E00088ED00E000380240FFFFF6FE10300024CB
:1020F00008ED00E00070004019544007003C024029
:10210000704700201F4907E00FF2BC02825C8A8002
:102110000A885206FCD5401C2A28F5D3FEE7FEE7C4
:10212000FEE7FEE7704770477047F8B5164C102180
:10213000204600F061F8002816D0144D2E68701C5F
:102140002860134F204600F055F827F8160010219C
:10215000204600F05DF82868022805D37888398881
:10216000401A80B20B490860F1BD80B50A480028CA
:1021700006D000F05DF87F20BDE8024000F04CB8CA
:1021800001BD000000100140000C004000020020D2
:1021900008020020040200202322000880B54FF42A
:1021A0008050FEF704FD00280CD00120FFF7F5FE5B
:1021B0004FF48050FEF711FD4FF40030BDE80240AF
:1021C000FEF74ABE01BD00000D0A456E746572201F
:1021D000486172644661756C745F48616E646C65D9
:1021E000722C2053797374656D2048616C742E0DC8
:1021F0000A000000006C70470022038A0B408089AF
:102200000840002B02D0002800D001221046704761
:10221000C94301827047000000F07F000649086052
:102220007047002005490968002900D00120704747
:102230000248002101607047002C0040082C00403B
:1022400010B5084979441C31074C7C441A34A1422A
:1022500006D0081D0A68511888470146A142F8D1E6
:1022600010BD00BF2C0000004C00000038B5044633
:10227000064D2146C9B22846FEF7A8FE4021284651
:10228000FEF7ACFE0028F9D0204632BD0010014018
:102290007FF2FFFFA80100006400002000000000A2
:1022A0000BF2FFFF64000000140200000000002099
:1022B000000000004EF68851CEF20001086840F49C
:1022C000700008604FF00070E1EE100A70470000E7
:1022D00000F009F8002801D0FFF7B2FF0020FFF757
:1022E0003DFB00F002F80120704700F001B800004B
:1022F0000746384600F002F8FBE7000080B5C0460C
:10230000C046024A11001820ABBEFBE726000200BF
:1023100038B504460D46284600F006F8A84218BF16
:102320000024204632BD00000149FFF79FBF00BFD7
:1023300000000020014880470148004701200008B4
:1023400045230008C046C046FFF7B4FFFFF7C0FFB3
:10235000FFF7D6BEFFF7D5BEFFF7E1BEFFF7E0BE41
:10236000FFF7DFBEFFF7DEBEFFF7DDBEFFF7DCBE27
:10237000FFF76ABDFFF7F9BEFFF7FEBFFFF7FEBF2D
:10238000FFF7FEBFFFF7FEBFFFF7FEBFFFF7FEBF81
:10239000FFF7FEBFFFF7FEBFFFF7FEBFFFF7FEBF71
:1023A000FFF7FEBFFFF7FEBFFFF7FEBFFFF7FEBF61
:1023B000FFF7FEBFFFF7FEBFFFF7FEBFFFF7FEBF51
:1023C000FFF7FEBFFFF7FEBFFFF7FEBFFFF7FEBF41
:1023D000FFF7FEBFFFF7FEBFFFF7FEBFFFF7FEBF31
:1023E000FFF7FEBFFFF7FEBFFFF7FEBFFFF7FEBF21
:1023F000FFF7FEBFFFF7FEBFFFF7FEBFFFF7FEBF11
:10240000FFF7FEBFFFF7FEBFFFF7FEBFFFF7FEBF00
:10241000FFF7FEBFFFF7FEBFFFF7C0BEFFF7FEBF2F
:10242000FFF7FEBFFFF7FEBFFFF7FEBFFFF7FEBFE0
:10243000FFF7FEBFFFF7FEBFFFF7FEBFFFF775BE5A
:10244000FFF7FEBFFFF7FEBFFFF7FEBFFFF7FEBFC0
:10245000FFF7FEBFFFF7FEBFFFF7FEBFFFF7FEBFB0
:10246000FFF7FEBFFFF7FEBFFFF7FEBFFFF7FEBFA0
:10247000FFF7FEBFFFF7FEBFFFF7FEBFFFF7FEBF90
:10248000FFF7FEBFFFF7FEBFFFF7FEBFFFF7FEBF80
:10249000FFF7FEBFFFF7FEBFFFF7FEBFFFF7FEBF70
:1024A000FFF7FEBFFFF7FEBFFFF7FEBFFFF7FEBF60
:1024B000FFF7FEBFFFF7FEBFFFF7FEBF02040101FB
:1024C00064010020B40100206401002064010020A8
:1024D000640100203D0000202400002000000000D6
:1024E00000000000000000000000000000000000EC
:1024F00000000000000000000000000000000000DC
:10250000000000000102030406070809007A030A1C
:102510000000000001020304010203040607080989
:040000050800234587
:00000001FF
